{
  "_format": "hh-sol-artifact-1",
  "contractName": "Factory",
  "sourceName": "contracts/Factory.sol",
  "abi": [
    {
      "inputs": [],
      "stateMutability": "nonpayable",
      "type": "constructor"
    },
    {
      "anonymous": false,
      "inputs": [
        {
          "indexed": true,
          "internalType": "address",
          "name": "previousOwner",
          "type": "address"
        },
        {
          "indexed": true,
          "internalType": "address",
          "name": "newOwner",
          "type": "address"
        }
      ],
      "name": "OwnershipTransferred",
      "type": "event"
    },
    {
      "anonymous": false,
      "inputs": [
        {
          "indexed": true,
          "internalType": "address",
          "name": "tokenAddress",
          "type": "address"
        },
        {
          "indexed": false,
          "internalType": "string",
          "name": "name",
          "type": "string"
        },
        {
          "indexed": false,
          "internalType": "string",
          "name": "symbol",
          "type": "string"
        },
        {
          "indexed": false,
          "internalType": "uint256",
          "name": "totalSupply",
          "type": "uint256"
        }
      ],
      "name": "TokenDeployed",
      "type": "event"
    },
    {
      "inputs": [
        {
          "internalType": "string",
          "name": "name",
          "type": "string"
        },
        {
          "internalType": "string",
          "name": "symbol",
          "type": "string"
        },
        {
          "internalType": "uint256",
          "name": "totalSupply",
          "type": "uint256"
        }
      ],
      "name": "deployToken",
      "outputs": [],
      "stateMutability": "payable",
      "type": "function"
    },
    {
      "inputs": [],
      "name": "etherFee",
      "outputs": [
        {
          "internalType": "uint256",
          "name": "",
          "type": "uint256"
        }
      ],
      "stateMutability": "view",
      "type": "function"
    },
    {
      "inputs": [],
      "name": "owner",
      "outputs": [
        {
          "internalType": "address",
          "name": "",
          "type": "address"
        }
      ],
      "stateMutability": "view",
      "type": "function"
    },
    {
      "inputs": [
        {
          "internalType": "uint256",
          "name": "newFee",
          "type": "uint256"
        }
      ],
      "name": "setEtherFee",
      "outputs": [],
      "stateMutability": "nonpayable",
      "type": "function"
    },
    {
      "inputs": [
        {
          "internalType": "address",
          "name": "newOwner",
          "type": "address"
        }
      ],
      "name": "transferOwnership",
      "outputs": [],
      "stateMutability": "nonpayable",
      "type": "function"
    },
    {
      "inputs": [],
      "name": "withdrawEther",
      "outputs": [],
      "stateMutability": "nonpayable",
      "type": "function"
    }
  ],
  "bytecode": "0x6080604052666a94d74f43000060015534801561001b57600080fd5b50336000806101000a81548173ffffffffffffffffffffffffffffffffffffffff021916908373ffffffffffffffffffffffffffffffffffffffff16021790555060008054906101000a900473ffffffffffffffffffffffffffffffffffffffff1673ffffffffffffffffffffffffffffffffffffffff16600073ffffffffffffffffffffffffffffffffffffffff167f8be0079c531659141344cd1fd0a4f28419497f9722a3daafe3b4186f6b6457e060405160405180910390a36125bb806100e66000396000f3fe6080604052600436106200005c5760003560e01c80633a93babb14620000615780634aed875014620000815780637362377b14620000af5780638da5cb5b14620000c9578063ed94c7f414620000f9578063f2fde38b1462000129575b600080fd5b6200007f60048036038101906200007991906200076f565b62000157565b005b3480156200008e57600080fd5b50620000ad6004803603810190620000a7919062000809565b6200023c565b005b348015620000bc57600080fd5b50620000c7620002d7565b005b348015620000d657600080fd5b50620000e1620003c1565b604051620000f0919062000880565b60405180910390f35b3480156200010657600080fd5b5062000111620003ea565b604051620001209190620008ae565b60405180910390f35b3480156200013657600080fd5b506200015560048036038101906200014f9190620008fc565b620003f0565b005b6001543410156200019f576040517f08c379a00000000000000000000000000000000000000000000000000000000081526004016200019690620009b5565b60405180910390fd5b600083838333604051620001b390620005b0565b620001c2949392919062000a4f565b604051809103906000f080158015620001df573d6000803e3d6000fd5b5090508073ffffffffffffffffffffffffffffffffffffffff167f965d14e60858869a5d867a6a8bc4d86b62d1af8fb0ec2e51ce43d009a073958b8585856040516200022e9392919062000aaa565b60405180910390a250505050565b60008054906101000a900473ffffffffffffffffffffffffffffffffffffffff1673ffffffffffffffffffffffffffffffffffffffff163373ffffffffffffffffffffffffffffffffffffffff1614620002cd576040517f08c379a0000000000000000000000000000000000000000000000000000000008152600401620002c49062000b45565b60405180910390fd5b8060018190555050565b60008054906101000a900473ffffffffffffffffffffffffffffffffffffffff1673ffffffffffffffffffffffffffffffffffffffff163373ffffffffffffffffffffffffffffffffffffffff161462000368576040517f08c379a00000000000000000000000000000000000000000000000000000000081526004016200035f9062000b45565b60405180910390fd5b600062000374620003c1565b90508073ffffffffffffffffffffffffffffffffffffffff166108fc479081150290604051600060405180830381858888f19350505050158015620003bd573d6000803e3d6000fd5b5050565b60008060009054906101000a900473ffffffffffffffffffffffffffffffffffffffff16905090565b60015481565b60008054906101000a900473ffffffffffffffffffffffffffffffffffffffff1673ffffffffffffffffffffffffffffffffffffffff163373ffffffffffffffffffffffffffffffffffffffff161462000481576040517f08c379a0000000000000000000000000000000000000000000000000000000008152600401620004789062000b45565b60405180910390fd5b600073ffffffffffffffffffffffffffffffffffffffff168173ffffffffffffffffffffffffffffffffffffffff1603620004f3576040517f08c379a0000000000000000000000000000000000000000000000000000000008152600401620004ea9062000bdd565b60405180910390fd5b8073ffffffffffffffffffffffffffffffffffffffff1660008054906101000a900473ffffffffffffffffffffffffffffffffffffffff1673ffffffffffffffffffffffffffffffffffffffff167f8be0079c531659141344cd1fd0a4f28419497f9722a3daafe3b4186f6b6457e060405160405180910390a3806000806101000a81548173ffffffffffffffffffffffffffffffffffffffff021916908373ffffffffffffffffffffffffffffffffffffffff16021790555050565b6119868062000c0083390190565b6000604051905090565b600080fd5b600080fd5b600080fd5b600080fd5b6000601f19601f8301169050919050565b7f4e487b7100000000000000000000000000000000000000000000000000000000600052604160045260246000fd5b6200062782620005dc565b810181811067ffffffffffffffff82111715620006495762000648620005ed565b5b80604052505050565b60006200065e620005be565b90506200066c82826200061c565b919050565b600067ffffffffffffffff8211156200068f576200068e620005ed565b5b6200069a82620005dc565b9050602081019050919050565b82818337600083830152505050565b6000620006cd620006c78462000671565b62000652565b905082815260208101848484011115620006ec57620006eb620005d7565b5b620006f9848285620006a7565b509392505050565b600082601f830112620007195762000718620005d2565b5b81356200072b848260208601620006b6565b91505092915050565b6000819050919050565b620007498162000734565b81146200075557600080fd5b50565b60008135905062000769816200073e565b92915050565b6000806000606084860312156200078b576200078a620005c8565b5b600084013567ffffffffffffffff811115620007ac57620007ab620005cd565b5b620007ba8682870162000701565b935050602084013567ffffffffffffffff811115620007de57620007dd620005cd565b5b620007ec8682870162000701565b9250506040620007ff8682870162000758565b9150509250925092565b600060208284031215620008225762000821620005c8565b5b6000620008328482850162000758565b91505092915050565b600073ffffffffffffffffffffffffffffffffffffffff82169050919050565b600062000868826200083b565b9050919050565b6200087a816200085b565b82525050565b60006020820190506200089760008301846200086f565b92915050565b620008a88162000734565b82525050565b6000602082019050620008c560008301846200089d565b92915050565b620008d6816200085b565b8114620008e257600080fd5b50565b600081359050620008f681620008cb565b92915050565b600060208284031215620009155762000914620005c8565b5b60006200092584828501620008e5565b91505092915050565b600082825260208201905092915050565b7f496e73756666696369656e742045746865722073656e7420666f72206465706c60008201527f6f796d656e742066656500000000000000000000000000000000000000000000602082015250565b60006200099d602a836200092e565b9150620009aa826200093f565b604082019050919050565b60006020820190508181036000830152620009d0816200098e565b9050919050565b600081519050919050565b60005b8381101562000a02578082015181840152602081019050620009e5565b60008484015250505050565b600062000a1b82620009d7565b62000a2781856200092e565b935062000a39818560208601620009e2565b62000a4481620005dc565b840191505092915050565b6000608082019050818103600083015262000a6b818762000a0e565b9050818103602083015262000a81818662000a0e565b905062000a9260408301856200089d565b62000aa160608301846200086f565b95945050505050565b6000606082019050818103600083015262000ac6818662000a0e565b9050818103602083015262000adc818562000a0e565b905062000aed60408301846200089d565b949350505050565b7f4f776e65723a2063616c6c6572206973206e6f7420746865206f776e65720000600082015250565b600062000b2d601e836200092e565b915062000b3a8262000af5565b602082019050919050565b6000602082019050818103600083015262000b608162000b1e565b9050919050565b7f4f776e65723a206e6577206f776e657220697320746865207a65726f2061646460008201527f7265737300000000000000000000000000000000000000000000000000000000602082015250565b600062000bc56024836200092e565b915062000bd28262000b67565b604082019050919050565b6000602082019050818103600083015262000bf88162000bb6565b905091905056fe60806040523480156200001157600080fd5b5060405162001986380380620019868339818101604052810190620000379190620005a4565b838381600390816200004a919062000895565b5080600490816200005c919062000895565b5050506000606483620000709190620009da565b90506000818462000082919062000a12565b9050620000968382620000b460201b60201c565b620000a83383620000b460201b60201c565b50505050505062000b21565b600073ffffffffffffffffffffffffffffffffffffffff168273ffffffffffffffffffffffffffffffffffffffff1603620001295760006040517fec442f0500000000000000000000000000000000000000000000000000000000815260040162000120919062000a5e565b60405180910390fd5b6200013d600083836200014160201b60201c565b5050565b600073ffffffffffffffffffffffffffffffffffffffff168373ffffffffffffffffffffffffffffffffffffffff1603620001975780600260008282546200018a919062000a7b565b925050819055506200026d565b60008060008573ffffffffffffffffffffffffffffffffffffffff1673ffffffffffffffffffffffffffffffffffffffff1681526020019081526020016000205490508181101562000226578381836040517fe450d38c0000000000000000000000000000000000000000000000000000000081526004016200021d9392919062000ac7565b60405180910390fd5b8181036000808673ffffffffffffffffffffffffffffffffffffffff1673ffffffffffffffffffffffffffffffffffffffff16815260200190815260200160002081905550505b600073ffffffffffffffffffffffffffffffffffffffff168273ffffffffffffffffffffffffffffffffffffffff1603620002b8578060026000828254039250508190555062000305565b806000808473ffffffffffffffffffffffffffffffffffffffff1673ffffffffffffffffffffffffffffffffffffffff168152602001908152602001600020600082825401925050819055505b8173ffffffffffffffffffffffffffffffffffffffff168373ffffffffffffffffffffffffffffffffffffffff167fddf252ad1be2c89b69c2b068fc378daa952ba7f163c4a11628f55a4df523b3ef8360405162000364919062000b04565b60405180910390a3505050565b6000604051905090565b600080fd5b600080fd5b600080fd5b600080fd5b6000601f19601f8301169050919050565b7f4e487b7100000000000000000000000000000000000000000000000000000000600052604160045260246000fd5b620003da826200038f565b810181811067ffffffffffffffff82111715620003fc57620003fb620003a0565b5b80604052505050565b60006200041162000371565b90506200041f8282620003cf565b919050565b600067ffffffffffffffff821115620004425762000441620003a0565b5b6200044d826200038f565b9050602081019050919050565b60005b838110156200047a5780820151818401526020810190506200045d565b60008484015250505050565b60006200049d620004978462000424565b62000405565b905082815260208101848484011115620004bc57620004bb6200038a565b5b620004c98482856200045a565b509392505050565b600082601f830112620004e957620004e862000385565b5b8151620004fb84826020860162000486565b91505092915050565b6000819050919050565b620005198162000504565b81146200052557600080fd5b50565b60008151905062000539816200050e565b92915050565b600073ffffffffffffffffffffffffffffffffffffffff82169050919050565b60006200056c826200053f565b9050919050565b6200057e816200055f565b81146200058a57600080fd5b50565b6000815190506200059e8162000573565b92915050565b60008060008060808587031215620005c157620005c06200037b565b5b600085015167ffffffffffffffff811115620005e257620005e162000380565b5b620005f087828801620004d1565b945050602085015167ffffffffffffffff81111562000614576200061362000380565b5b6200062287828801620004d1565b9350506040620006358782880162000528565b925050606062000648878288016200058d565b91505092959194509250565b600081519050919050565b7f4e487b7100000000000000000000000000000000000000000000000000000000600052602260045260246000fd5b60006002820490506001821680620006a757607f821691505b602082108103620006bd57620006bc6200065f565b5b50919050565b60008190508160005260206000209050919050565b60006020601f8301049050919050565b600082821b905092915050565b600060088302620007277fffffffffffffffffffffffffffffffffffffffffffffffffffffffffffffffff82620006e8565b620007338683620006e8565b95508019841693508086168417925050509392505050565b6000819050919050565b600062000776620007706200076a8462000504565b6200074b565b62000504565b9050919050565b6000819050919050565b620007928362000755565b620007aa620007a1826200077d565b848454620006f5565b825550505050565b600090565b620007c1620007b2565b620007ce81848462000787565b505050565b5b81811015620007f657620007ea600082620007b7565b600181019050620007d4565b5050565b601f82111562000845576200080f81620006c3565b6200081a84620006d8565b810160208510156200082a578190505b620008426200083985620006d8565b830182620007d3565b50505b505050565b600082821c905092915050565b60006200086a600019846008026200084a565b1980831691505092915050565b600062000885838362000857565b9150826002028217905092915050565b620008a08262000654565b67ffffffffffffffff811115620008bc57620008bb620003a0565b5b620008c882546200068e565b620008d5828285620007fa565b600060209050601f8311600181146200090d5760008415620008f8578287015190505b62000904858262000877565b86555062000974565b601f1984166200091d86620006c3565b60005b82811015620009475784890151825560018201915060208501945060208101905062000920565b8683101562000967578489015162000963601f89168262000857565b8355505b6001600288020188555050505b505050505050565b7f4e487b7100000000000000000000000000000000000000000000000000000000600052601260045260246000fd5b7f4e487b7100000000000000000000000000000000000000000000000000000000600052601160045260246000fd5b6000620009e78262000504565b9150620009f48362000504565b92508262000a075762000a066200097c565b5b828204905092915050565b600062000a1f8262000504565b915062000a2c8362000504565b925082820390508181111562000a475762000a46620009ab565b5b92915050565b62000a58816200055f565b82525050565b600060208201905062000a75600083018462000a4d565b92915050565b600062000a888262000504565b915062000a958362000504565b925082820190508082111562000ab05762000aaf620009ab565b5b92915050565b62000ac18162000504565b82525050565b600060608201905062000ade600083018662000a4d565b62000aed602083018562000ab6565b62000afc604083018462000ab6565b949350505050565b600060208201905062000b1b600083018462000ab6565b92915050565b610e558062000b316000396000f3fe608060405234801561001057600080fd5b50600436106100935760003560e01c8063313ce56711610066578063313ce5671461013457806370a082311461015257806395d89b4114610182578063a9059cbb146101a0578063dd62ed3e146101d057610093565b806306fdde0314610098578063095ea7b3146100b657806318160ddd146100e657806323b872dd14610104575b600080fd5b6100a0610200565b6040516100ad9190610aa9565b60405180910390f35b6100d060048036038101906100cb9190610b64565b610292565b6040516100dd9190610bbf565b60405180910390f35b6100ee6102b5565b6040516100fb9190610be9565b60405180910390f35b61011e60048036038101906101199190610c04565b6102bf565b60405161012b9190610bbf565b60405180910390f35b61013c6102ee565b6040516101499190610c73565b60405180910390f35b61016c60048036038101906101679190610c8e565b6102f7565b6040516101799190610be9565b60405180910390f35b61018a61033f565b6040516101979190610aa9565b60405180910390f35b6101ba60048036038101906101b59190610b64565b6103d1565b6040516101c79190610bbf565b60405180910390f35b6101ea60048036038101906101e59190610cbb565b6103f4565b6040516101f79190610be9565b60405180910390f35b60606003805461020f90610d2a565b80601f016020809104026020016040519081016040528092919081815260200182805461023b90610d2a565b80156102885780601f1061025d57610100808354040283529160200191610288565b820191906000526020600020905b81548152906001019060200180831161026b57829003601f168201915b5050505050905090565b60008061029d61047b565b90506102aa818585610483565b600191505092915050565b6000600254905090565b6000806102ca61047b565b90506102d7858285610495565b6102e2858585610529565b60019150509392505050565b60006012905090565b60008060008373ffffffffffffffffffffffffffffffffffffffff1673ffffffffffffffffffffffffffffffffffffffff168152602001908152602001600020549050919050565b60606004805461034e90610d2a565b80601f016020809104026020016040519081016040528092919081815260200182805461037a90610d2a565b80156103c75780601f1061039c576101008083540402835291602001916103c7565b820191906000526020600020905b8154815290600101906020018083116103aa57829003601f168201915b5050505050905090565b6000806103dc61047b565b90506103e9818585610529565b600191505092915050565b6000600160008473ffffffffffffffffffffffffffffffffffffffff1673ffffffffffffffffffffffffffffffffffffffff16815260200190815260200160002060008373ffffffffffffffffffffffffffffffffffffffff1673ffffffffffffffffffffffffffffffffffffffff16815260200190815260200160002054905092915050565b600033905090565b610490838383600161061d565b505050565b60006104a184846103f4565b90507fffffffffffffffffffffffffffffffffffffffffffffffffffffffffffffffff81146105235781811015610513578281836040517ffb8f41b200000000000000000000000000000000000000000000000000000000815260040161050a93929190610d6a565b60405180910390fd5b6105228484848403600061061d565b5b50505050565b600073ffffffffffffffffffffffffffffffffffffffff168373ffffffffffffffffffffffffffffffffffffffff160361059b5760006040517f96c6fd1e0000000000000000000000000000000000000000000000000000000081526004016105929190610da1565b60405180910390fd5b600073ffffffffffffffffffffffffffffffffffffffff168273ffffffffffffffffffffffffffffffffffffffff160361060d5760006040517fec442f050000000000000000000000000000000000000000000000000000000081526004016106049190610da1565b60405180910390fd5b6106188383836107f4565b505050565b600073ffffffffffffffffffffffffffffffffffffffff168473ffffffffffffffffffffffffffffffffffffffff160361068f5760006040517fe602df050000000000000000000000000000000000000000000000000000000081526004016106869190610da1565b60405180910390fd5b600073ffffffffffffffffffffffffffffffffffffffff168373ffffffffffffffffffffffffffffffffffffffff16036107015760006040517f94280d620000000000000000000000000000000000000000000000000000000081526004016106f89190610da1565b60405180910390fd5b81600160008673ffffffffffffffffffffffffffffffffffffffff1673ffffffffffffffffffffffffffffffffffffffff16815260200190815260200160002060008573ffffffffffffffffffffffffffffffffffffffff1673ffffffffffffffffffffffffffffffffffffffff1681526020019081526020016000208190555080156107ee578273ffffffffffffffffffffffffffffffffffffffff168473ffffffffffffffffffffffffffffffffffffffff167f8c5be1e5ebec7d5bd14f71427d1e84f3dd0314c0f7b2291e5b200ac8c7c3b925846040516107e59190610be9565b60405180910390a35b50505050565b600073ffffffffffffffffffffffffffffffffffffffff168373ffffffffffffffffffffffffffffffffffffffff160361084657806002600082825461083a9190610deb565b92505081905550610919565b60008060008573ffffffffffffffffffffffffffffffffffffffff1673ffffffffffffffffffffffffffffffffffffffff168152602001908152602001600020549050818110156108d2578381836040517fe450d38c0000000000000000000000000000000000000000000000000000000081526004016108c993929190610d6a565b60405180910390fd5b8181036000808673ffffffffffffffffffffffffffffffffffffffff1673ffffffffffffffffffffffffffffffffffffffff16815260200190815260200160002081905550505b600073ffffffffffffffffffffffffffffffffffffffff168273ffffffffffffffffffffffffffffffffffffffff160361096257806002600082825403925050819055506109af565b806000808473ffffffffffffffffffffffffffffffffffffffff1673ffffffffffffffffffffffffffffffffffffffff168152602001908152602001600020600082825401925050819055505b8173ffffffffffffffffffffffffffffffffffffffff168373ffffffffffffffffffffffffffffffffffffffff167fddf252ad1be2c89b69c2b068fc378daa952ba7f163c4a11628f55a4df523b3ef83604051610a0c9190610be9565b60405180910390a3505050565b600081519050919050565b600082825260208201905092915050565b60005b83811015610a53578082015181840152602081019050610a38565b60008484015250505050565b6000601f19601f8301169050919050565b6000610a7b82610a19565b610a858185610a24565b9350610a95818560208601610a35565b610a9e81610a5f565b840191505092915050565b60006020820190508181036000830152610ac38184610a70565b905092915050565b600080fd5b600073ffffffffffffffffffffffffffffffffffffffff82169050919050565b6000610afb82610ad0565b9050919050565b610b0b81610af0565b8114610b1657600080fd5b50565b600081359050610b2881610b02565b92915050565b6000819050919050565b610b4181610b2e565b8114610b4c57600080fd5b50565b600081359050610b5e81610b38565b92915050565b60008060408385031215610b7b57610b7a610acb565b5b6000610b8985828601610b19565b9250506020610b9a85828601610b4f565b9150509250929050565b60008115159050919050565b610bb981610ba4565b82525050565b6000602082019050610bd46000830184610bb0565b92915050565b610be381610b2e565b82525050565b6000602082019050610bfe6000830184610bda565b92915050565b600080600060608486031215610c1d57610c1c610acb565b5b6000610c2b86828701610b19565b9350506020610c3c86828701610b19565b9250506040610c4d86828701610b4f565b9150509250925092565b600060ff82169050919050565b610c6d81610c57565b82525050565b6000602082019050610c886000830184610c64565b92915050565b600060208284031215610ca457610ca3610acb565b5b6000610cb284828501610b19565b91505092915050565b60008060408385031215610cd257610cd1610acb565b5b6000610ce085828601610b19565b9250506020610cf185828601610b19565b9150509250929050565b7f4e487b7100000000000000000000000000000000000000000000000000000000600052602260045260246000fd5b60006002820490506001821680610d4257607f821691505b602082108103610d5557610d54610cfb565b5b50919050565b610d6481610af0565b82525050565b6000606082019050610d7f6000830186610d5b565b610d8c6020830185610bda565b610d996040830184610bda565b949350505050565b6000602082019050610db66000830184610d5b565b92915050565b7f4e487b7100000000000000000000000000000000000000000000000000000000600052601160045260246000fd5b6000610df682610b2e565b9150610e0183610b2e565b9250828201905080821115610e1957610e18610dbc565b5b9291505056fea26469706673582212202004bd5638577514af7560dad5ae3545550232052592c7498210824d5f82931664736f6c63430008180033a2646970667358221220b65bf4c4b3dcab43a829f170126513085719ba03213079dcc4352c212f278ca264736f6c63430008180033",
  "linkReferences": {},
  "deployedLinkReferences": {}
}